:100000000C9470010C9498010C9498010C94980134
:100010000C9498010C9498010C9498010C949801FC
:100020000C9498010C9498010C946B0F0C949A10FA
:100030000C9498010C9498010C9498010C949801DC
:100040000C9498010C9498010C9498010C949801CC
:100050000C9498010C9498010C9498010C94D40978
:100060000C9498010C9498010C9498010C949801AC
:100070000C9498010C9498010C9498010C9498019C
:100080000C9498010C9498010C9498010C9498018C
:100090000C9482040C9498010C9498010C9498018F
:1000A0000C9498010C9498010C94980100000000A5
:1000B000240027002A002D00300000000000250049
:1000C00028002B002E003100000000002300260035
:1000D00029002C002F000404040404030405020278
:1000E00002020403020202020606060606060404D1
:1000F00002020204040802011040804010204080E7
:10010000408008020401804020100201108010206D
:1001100040400000000200080E0000030401000B34
:100120000000070605040100080A0B0C0D09080B66
:1001300000020202010009040000010202000005A1
:1001400024001001052401010104240206052406EF
:1001500000010705810310004009040100020A00A4
:10016000000007050202400000070583024000006E
:100170000403090422034100640061006600720068
:10018000750069007400200046006C006F0072006A
:100190006100200020001803410064006100660037
:1001A0007200750069007400200020002000120118
:1001B0000002000000409A230480000101020001B7
:1001C00012010002020000409A2304800001010293
:1001D000000100C18081C105010902A1010901A13D
:1001E00000850105091901290315002501950375ED
:1001F0000181029501750581030501093009310965
:10020000381581257F750895038106C0C005010951
:1002100006A1018502050719E029E71500250175EA
:1002200001950881029501750881039506750815E9
:100230000025650507190029658100C00904020031
:1002400001030000000921010100012265000705EA
:10025000840340000100000000000000002A2B2859
:10026000000000000000000000000000000000008E
:1002700000000000002C9EB4A0A1A2A434A6A7A553
:10028000AE362D3738271E1F20212223242526B3E2
:1002900033B62EB7B89F8485868788898A8B8C8DE4
:1002A0008E8F909192939495969798999A9B9C9DF6
:1002B0002F3130A3AD350405060708090A0B0C0DD4
:1002C0000E0F101112131415161718191A1B1C1DD6
:1002D000AFB1B0B50000A9011E039E0BB70F1D12F0
:1002E00011241FBECFEFDAE0DEBFCDBF12E0A0E0E9
:1002F000B1E0ECE1FBE202C005900D92A63DB10732
:10030000D9F713E0A6EDB2E001C01D92AD3DB107F3
:10031000E1F712E0C0EED2E004C02297FE010E9495
:100320008815C63DD107C9F70E94700C0C948C1536
:100330000C940000FB01DC014150504048F001905A
:100340000D920020C9F701C01D9241505040E0F7C6
:10035000089586ED92E049E350E360E070E00E948A
:1003600031060895EF92FF920F931F93DF93CF937F
:10037000CDB7DEB7A4970FB6F894DEBF0FBECDBFE2
:1003800086ED92E0BE016F5F7F4F0E94F90709EB97
:1003900013E0C80160E071E00E94B20D4D895E89F2
:1003A0006F89788DC80122E030E00E94990E84E0C8
:1003B000E82E81E0F82EC801B7010E94B20DC801F5
:1003C00067E071E00E94B20D498D5A8D6B8D7C8D76
:1003D000C80122E030E00E94990EC801B7010E94D6
:1003E000B20DC8016BE071E00E94B20D4D8D5E8DC3
:1003F0006F8D78A1C80122E030E00E94990EC801FB
:10040000B7010E94B20DC8016FE071E00E949C0E1E
:1004100064EF71E080E090E00E94360AA4960FB687
:10042000F894DEBF0FBECDBFCF91DF911F910F912A
:10043000FF90EF900895CF92DF92EF92FF920F938B
:100440001F93DF93CF93CDB7DEB7A8970FB6F8947D
:10045000DEBF0FBECDBF86ED92E07E010894E11CA9
:10046000F11CB7010E943F0609EB13E022E1C22E06
:1004700021E0D22EC801B6010E949C0EC80167E39C
:1004800071E00E94B20DC801B7010E949C0EC80124
:1004900066E471E00E94B20D4D855E856F857889B6
:1004A000C8012AE030E00E949E0DC80165E571E0B8
:1004B0000E94B20D49895A896B897C89C8012AE05A
:1004C00030E00E949E0DC80164E671E00E94B20D0A
:1004D000498D5A8D6B8D7C8DC80122E030E00E94E1
:1004E000990E93E7E92E91E0F92EC801B7010E9419
:1004F0009C0EC80167E771E00E94B20D4D8D5E8DC4
:100500006F8D78A1C80122E030E00E94990EC801E9
:10051000B7010E949C0EC80166E871E00E94B20D0E
:1005200049A15AA16BA17CA1C80122E030E00E9440
:10053000990EC801B7010E949C0EC801B6010E9425
:100540009C0EC80165E971E00E949C0E64EF71E0A9
:1005500080E090E00E94360AA8960FB6F894DEBFBD
:100560000FBECDBFCF91DF911F910F91FF90EF9004
:10057000DF90CF90089589EB93E040E855E260E08A
:1005800070E00E94800B89EB93E066E971E00E94C5
:100590009C0E89EB93E065E971E00E949C0E86ED6C
:1005A00092E061E00E943C0686ED92E00E94B5096F
:1005B000882339F489EB93E068EA71E00E949C0E8D
:1005C000FFCF0E941B02089581E080933503609362
:1005D00012031092330310923403089520911103F3
:1005E00030E080911003281B3109C9010895409122
:1005F000100380911103481718F02FEF3FEF0AC046
:10060000E42FF0E0E051FD4F8081282F30E04F5F74
:1006100040931003C9010895E091100380911103E4
:10062000E81718F0EFEFFFEF06C0F0E0E051FD4FE4
:100630008081E82FF0E0CF010895089510923903EA
:100640001092380388EE93E0A0E0B0E080933A0384
:1006500090933B03A0933C03B0933D0382EA92E066
:1006600090933703809336030895CF92DF92EF92F1
:10067000FF920F931F93CF93DF937C016B018A014D
:10068000809135038823A1F0C0E0D0E00DC0D701F0
:10069000ED91FC91D601AC0FBD1F0190F081E02DD2
:1006A000C7016C9109952196C017D10780F304C04A
:1006B000CB01642F0E946704C801DF91CF911F9185
:1006C0000F91FF90EF90DF90CF900895DF93CF933D
:1006D0000F92CDB7DEB7FC01698380913503882383
:1006E000C9F080913403803238F081E090E0938348
:1006F000828320E030E015C080913303E82FF0E0E2
:10070000ED5EFC4F998190838F5F809333038093DC
:10071000340305C0CE01019661E00E94670421E028
:1007200030E0C9010F90CF91DF9108950F93062F0C
:100730008091120363E173E04091340321E00E9451
:1007400012041092330310923403109235030F9168
:10075000089561E00E9496030895413208F040E256
:10076000862F60EF72E00E94C903109210038093FD
:100770001103089521E00E94AD0308951092100323
:100780001092110310923303109234030E94130647
:100790000895382F413210F040E042C0809142036A
:1007A0008823E1F791E090934203209344038FEF75
:1007B0008093AF0310926A03415040936B034F5FE5
:1007C0009093430380914303330F832B8093430320
:1007D00080914503813041F4109245038091430399
:1007E0008093BB0085EC01C085EE8093BC008091B6
:1007F00042038130E1F380916A03841710F4409141
:100800006A0320E030E00AC0FB01E20FF31FD901C8
:10081000A65BBC4F8C9180832F5F3F4F2417A0F3C2
:10082000842F08950F931F93582F122F413210F0E9
:1008300081E04AC0809142038823E1F782E08093FF
:100840004203009344038FEF8093AF0310926A0337
:1008500040936B03AAE4B3E0FB0102C081918D9346
:100860008E2F861B8417D0F310924303809143038D
:10087000550F852B8093430380914503813041F4CC
:1008800010924503809143038093BB0085EC01C027
:1008900085EE8093BC00112321F0809142038230C9
:1008A000E1F38091AF038F3F11F480E00DC08091A0
:1008B000AF03803211F482E007C08091AF03803330
:1008C00011F084E001C083E01F910F910895482F3B
:1008D000613210F081E0089580914203843011F07C
:1008E00082E0089560938D03ACE6B3E0842F9C0111
:1008F000F90102C081918D938E2F841B8617D0F34E
:1009000080E008951F920F920FB60F9211242F933B
:100910003F934F935F936F937F938F939F93AF9387
:10092000BF93EF93FF938091B90090E0887F907020
:100930008036910509F4F2C081369105CCF58832F4
:10094000910509F47BC089329105B4F48031910599
:1009500009F46FC0813191053CF4009709F447C157
:10096000089709F04FC165C08831910509F466C048
:10097000809709F047C182C08034910509F4A4C072
:100980008134910544F48033910509F482C0C897FD
:1009900009F038C189C08035910509F489C08835CE
:1009A000910509F496C08834910509F02BC1AEC0B9
:1009B0008839910509F413C189399105ECF4883718
:1009C000910509F4ABC0893791054CF4883691053F
:1009D00009F4A4C08037910509F014C19FC088387C
:1009E000910509F4FCC08039910509F49DC0803857
:1009F000910509F007C198C0803B910509F4C6C074
:100A0000813B91054CF4803A910509F49FC0883AE6
:100A1000910509F0F7C0BAC0803C910509F4E3C024
:100A2000883C910509F4DFC0883B910509F0EAC0D4
:100A3000C2C0809143038093BB00CFC090916A03F2
:100A400080916B03981768F490916A03E92FF0E0A6
:100A5000E65BFC4F80818093BB009F5F90936A03AD
:100A6000BCC080914403882309F44BC085ED80937A
:100A7000BC008091BC0084FDFCCFC2C080E28093AA
:100A8000AF0385ED8093BC008091BC0084FDFCCF5A
:100A9000B7C080E38093AF0385ED8093BC00809165
:100AA000BC0084FDFCCFACC088E38093AF039BC047
:100AB00080916A039091BB00E82FF0E0E65BFC4F69
:100AC00090838F5F80936A0390916A0380916B0398
:100AD00082C080916A039091BB00E82FF0E0E65B52
:100AE000FC4F90838F5F80936A0380914403882337
:100AF00041F085ED8093BC008091BC0084FDFCCF6B
:100B00007FC081E08093450384EA6EC085ED8093C9
:100B1000BC008091BC0084FDFCCF72C083E0809358
:100B200042031092AE0359C08091AE03803208F0A8
:100B300056C08091AE039091BB00E82FF0E0E257E1
:100B4000FC4F90838F5F8093AE0347C08091AE03CC
:100B5000803230F4E091AE03F0E0E257FC4F1082B7
:100B600085ED8093BC008091BC0084FDFCCF109289
:100B700042036091AE03E0914803F09149038EE88F
:100B800093E070E009951092AE032DC084E080934D
:100B9000420310928C0310928D03E0914603F09172
:100BA0004703099580918D03882329F481E0809380
:100BB0008D0310926C0390918C03E92FF0E0E459BF
:100BC000FC4F80818093BB009F5F90938C0390913A
:100BD0008C0380918D03981710F485EC01C085E893
:100BE0008093BC000FC085EC8093BC0009C01092BC
:100BF000AF0385ED8093BC008091BC0084FDFCCFE9
:100C000010924203FF91EF91BF91AF919F918F910D
:100C10007F916F915F914F913F912F910F900FBEF8
:100C20000F901F9018951092420381E08093440327
:100C30001092450382E061E00E944D0B83E061E089
:100C40000E944D0BE9EBF0E080818E7F80838081F4
:100C50008D7F808380E28093B80085E48093BC0020
:100C60000895FC0182EB92E091838083458B568B43
:100C7000678B708F118E0895FC01618F0895EF923C
:100C8000FF920F931F937C018B0188E2FB0111926D
:100C90008A95E9F7CB0169ED71E04BE050E00E94E5
:100CA0009A01F801138681E090E0A0E0B0E084872B
:100CB0009587A687B787F70185899689A789B08D1B
:100CC000F801808B918BA28BB38B82E090E0A0E047
:100CD000B0E0848B958BA68BB78B14A215A216A2BD
:100CE00017A280E090E0A0E0B0E0808F918FA28F0B
:100CF000B38F848F958FA68FB78F80A391A3A2A364
:100D0000B3A31F910F91FF90EF9008959F92AF9220
:100D1000BF92CF92DF92EF92FF920F931F93CF93E8
:100D2000DF93EC0186E393E06EE10E94E40286E348
:100D300093E063E00E94660386E393E00E94A903C8
:100D400086E393E06EE146E00E94BA0386E393E017
:100D50000E94EE020697D4F386E393E00E94F70226
:100D6000A82E86E393E00E94F702E82E86E393E044
:100D70000E94F702982E86E393E00E94F702C82EA5
:100D800086E393E00E94F702B82E86E393E00E9488
:100D9000F702082F7A2D60E0FF246E297F2988272B
:100DA00077FD8095982F0E942A146D837E838F8310
:100DB00098877B2D60E010E0602B712B882777FDF2
:100DC0008095982F0E942A1469877A878B879C8741
:100DD000792D60E0DD246C297D29882777FD8095B9
:100DE000982F0E942A146D877E878F87988B80E0CA
:100DF00090E0A0E0B0E0898B9A8BAB8BBC8BDF914D
:100E0000CF911F910F91FF90EF90DF90CF90BF9007
:100E1000AF909F900895EF92FF920F931F93E62E4D
:100E2000F42E06E313E0C8010E94E402C8016F2D0E
:100E30000E946603C8010E94A903C8016E2D41E00B
:100E40000E94BA03C8010E94F702F82EC8010E944E
:100E5000A9038F2D1F910F91FF90EF900895EF92AE
:100E6000FF920F931F93F42EE22E06E313E0C801C6
:100E70000E94E402C8016F2D0E946603C8016E2D16
:100E80000E946603C8010E94A9031F910F91FF9061
:100E9000EF9008950F931F93CF93DF938C01EB0195
:100EA0006EE141E02C2F0E942F07F801D483C38309
:100EB000C038D10509F44DC0C138D10554F4C0344F
:100EC000D10529F1C036D10599F1A09709F08CC060
:100ED0000DC0C03CD10509F45EC0C03ED10509F487
:100EE0006BC0C03AD10509F07FC044C080E090E8F3
:100EF000A9E8B4E480938C0290938D02A0938E02B3
:100F0000B0938F0280E090E0A5E7B4E465C080E094
:100F100090ECA5E5B4E480938C0290938D02A093AD
:100F20008E02B0938F0280E090E0AEE3B4E454C050
:100F300080E090E8A7E2B4E480938C0290938D0265
:100F4000A0938E02B0938F0280E090E0A6E1B4E41B
:100F500043C080E090E0A1EEB3E480938C029093D4
:100F60008D02A0938E02B0938F0280E090E0A8ECF7
:100F7000B3E432C080E090E0A8ECB3E480938C024C
:100F800090938D02A0938E02B0938F0280E090E840
:100F9000A1EBB3E421C080E090E0A5EAB3E4809344
:100FA0008C0290938D02A0938E02B0938F0280E00A
:100FB00090E8A3E9B3E410C080E090E0A6E6B3E4D3
:100FC00080938C0290938D02A0938E02B0938F0237
:100FD00080E090E0ADE4B3E48093900290939102BE
:100FE000A0939202B0939302DF91CF911F910F9142
:100FF00008952F923F924F925F926F927F928F92BD
:101000009F92AF92BF92CF92DF92EF92FF920F9397
:101010001F93DF93CF9300D000D0CDB7DEB71C0174
:101020002B0184E2DB011D928A95E9F7C1010E9440
:101030008606F101818D882309F40CC14581568112
:101040006781708589EB93E022E030E00E94990E81
:1010500089EB93E060EE71E00E94B20DD101199628
:101060004D915D916D917C911C9789EB93E022E00D
:1010700030E00E94990E89EB93E060EE71E00E94EF
:10108000B20DF101458556856785708989EB93E03E
:1010900022E030E00E94990E89EB93E060EE71E06F
:1010A0000E949C0ED10115968D919D910D90BC9141
:1010B000A02D89839A83AB83BC83F101E184F28400
:1010C0000385148585849684A784B0886624772454
:1010D000C801B70120E030E04FEF54EC0E948B13C1
:1010E00018161CF041E0642E712CCC24DD24C801BC
:1010F000B70120E030E04FEF54E40E94DA14882377
:101100001CF031E0C32ED12C7301EC28FD2800E047
:1011100010E0C501B40120E030E04FEF54E40E943C
:10112000DA14882314F001E010E0E02AF12A00E04C
:1011300010E0C501B40120E030E04FEF54EC0E9414
:101140008B13181614F001E010E00E291F29FF245C
:1011500069817A818B819C8120E030E04FEF54E4FB
:101160000E94DA14882314F0FF24F394EE2469819A
:101170007A818B819C8120E030E04FEF54EC0E941B
:101180008B13181614F0EE24E394FE288F2D90E0B4
:10119000082B192B012B09F45DC0D10113968D91F9
:1011A0009C91149780369105A9F1813691054CF4F4
:1011B0008032910509F442C08034910509F04AC09B
:1011C00033C0803A910591F0803C910529F0803838
:1011D000910509F03FC014C0C10160EE70E00E94AB
:1011E0004A0789EB93E062EE71E031C0C10160EC27
:1011F00070E00E944A0789EB93E06CEF71E027C032
:10120000C10160EA70E00E944A0789EB93E066E161
:1012100072E01DC0C10160E870E00E944A0789EBDE
:1012200093E060E372E013C0C10160E670E00E94E9
:101230004A0789EB93E06AE472E009C0C10160E407
:1012400070E00E944A0789EB93E064E672E00E9436
:101250009C0EECCE84E290E0A0E0B0E0F20180834E
:101260009183A283B383F10185899689A789B08D83
:10127000F20184839583A683B78382E090E0A0E0A7
:10128000B0E080879187A287B3870E94280AD201A5
:1012900050966D937D938D939C935397E0908C0221
:1012A000F0908D0200918E0210918F02F101658104
:1012B000768187819085A80197010E948F1320E095
:1012C00030E048EC52E40E94DE14D20154966D9353
:1012D0007D938D939C935797F101618572858385EA
:1012E0009485A80197010E948F1320E030E048EC1C
:1012F00052E40E94DE14D20158966D937D938D9333
:101300009C935B97F101658576858785908920910F
:1013100090023091910240919202509193020E946A
:101320008F1320E030E048EC52E40E94DE14D2013A
:101330005C966D937D938D939C935F970F900F9028
:101340000F900F90CF91DF911F910F91FF90EF9031
:10135000DF90CF90BF90AF909F908F907F906F90D5
:101360005F904F903F902F900895CF93DF93EC01C3
:1013700086E393E00E94BE03CE016EE142E020E0EE
:101380000E942F07CE016EE140E00E940B078031E2
:1013900011F080E006C0CE0160E270E00E944A07D2
:1013A00081E0DF91CF9108951F920F920FB60F92B7
:1013B00011242F933F934F935F936F937F938F935A
:1013C0009F93AF93BF932091B4033091B5034091A5
:1013D000B6035091B7037091B803DA01C9010296C0
:1013E000A11DB11D672F6A5F6D3730F06D57DA01AF
:1013F000C9010396A11DB11D6093B8038093B40386
:101400009093B503A093B603B093B7038091B00354
:101410009091B103A091B203B091B3030196A11DC5
:10142000B11D8093B0039093B103A093B203B09326
:10143000B303BF91AF919F918F917F916F915F9116
:101440004F913F912F910F900FBE0F901F901895C5
:101450008FB7F8942091B4033091B5034091B6034F
:101460005091B7038FBFB901CA0108959B01AC0128
:101470007FB7F8948091B0039091B103A091B2032B
:10148000B091B30366B5A89B05C06F3F19F00196F4
:10149000A11DB11D7FBFBA2FA92F982F8827860FB6
:1014A000911DA11DB11D63E0880F991FAA1FBB1FCD
:1014B0006A95D1F7BC012DC0FFB7F8948091B003B5
:1014C0009091B103A091B203B091B303E6B5A89B8C
:1014D00005C0EF3F19F00196A11DB11DFFBFBA2F46
:1014E000A92F982F88278E0F911DA11DB11DE3E014
:1014F000880F991FAA1FBB1FEA95D1F7861B970B70
:10150000885E9340C8F221503040404050406851BE
:101510007C4F211531054105510571F608957894E8
:1015200084B5826084BD84B5816084BD85B58260E8
:1015300085BD85B5816085BDEEE6F0E08081816086
:101540008083E1E8F0E01082808182608083808186
:1015500081608083E0E8F0E0808181608083E1EB5E
:10156000F0E0808184608083E0EBF0E08081816046
:101570008083E1E9F0E08081826080838081816006
:101580008083E0E9F0E0808181608083E1ECF0E03D
:10159000808184608083808182608083808181609B
:1015A0008083E3ECF0E0808181608083E0ECF0E018
:1015B000808182608083E2ECF0E0808181608083C2
:1015C000EAE7F0E0808184608083808182608083AC
:1015D00080818160808380818068808308958730E6
:1015E000C1F1883080F48330F9F0843030F48130F8
:1015F00029F1823009F050C024C08430C9F086300F
:1016000009F04AC022C08A3091F18B3030F4883022
:1016100031F1893009F040C026C08C3091F18C3016
:1016200060F18E30C9F533C0809180008F7703C0A0
:10163000809180008F7D80938000089584B58F779E
:1016400002C084B58F7D84BD08958091B0008F77EE
:1016500003C08091B0008F7D8093B0000895809189
:1016600090008F7707C0809190008F7D03C080919C
:101670009000877F8093900008958091C0008F77BD
:1016800003C08091C0008F7D8093C0000895809139
:10169000C200877F8093C2000895FF920F931F932B
:1016A000F62E482F50E0CA018E5E9E4FFC01249119
:1016B000CA018C509F4FFC0114914A525F4FFA01AE
:1016C00004910023C9F0222319F0822F0E94EF0A0F
:1016D000E02FF0E0EE0FFF1FE654FF4FA591B4910D
:1016E0009FB7F894FF2021F48C911095812302C0BC
:1016F0008C91812B8C939FBF1F910F91FF90089528
:101700002FEF3FEFFC01358724870895DF93CF93B8
:101710000F92CDB7DEB7FC016983A081B18112962B
:101720002D913C911397BE016F5F7F4F41E050E0D8
:10173000F90109950F90CF91DF9108951092BC03A4
:101740001092BB0388EE93E0A0E0B0E08093BD036D
:101750009093BE03A093BF03B093C0038CEB92E0C1
:101760009093BA038093B9038FEF9FEF9093C603D2
:101770008093C5030895CF93DF93EC0180919B0282
:10178000882341F083E00E94D80F1816190614F43C
:101790009C0106C081E090E09B838A8320E030E0DA
:1017A000C901DF91CF91089583E00E94610F0895F0
:1017B000FC012485358537FD05C08FEF9FEF9587A8
:1017C000848704C082E00E94EC0E9C01C901089548
:1017D000CF93DF93EC018C859D8597FF05C082E058
:1017E0000E94EC0E9D878C878C859D85DF91CF9123
:1017F0000895FC018485958597FD08C082E00E94CC
:10180000AF0E282F30E02F5F3F4F05C082E00E94CF
:10181000AF0E282F30E0C9010895FC0180818E5F52
:10182000808380E86EE271E042E450E00E94050FA0
:101830000895FC0181819081913A59F4813209F037
:101840004CC080E064E972E047E050E00E94050F80
:1018500042C0913209F041C0803239F484E992E00B
:1018600067E070E00E94490F36C0823209F035C04F
:10187000828180939B028091940290919502A09125
:101880009602B0919702805B9440A040B04019F559
:1018900080919B0280FD12C087E797E79093010833
:1018A000809300082BE088E190E00FB6F894A895AB
:1018B000809360000FBE209360000DC088E10FB6DA
:1018C000F89480936000109260000FBEA89510926B
:1018D00001081092000881E0089580E008950895BD
:1018E000CF93DF930E948F0A0E946F0C8FEC93E0DE
:1018F0000E94B80F0E94BB02C0E0D0E00E94B2017B
:101900002097E1F30E940000F9CFCF92DF92EF928F
:10191000FF920F931F93CF93DF937C016B018A019A
:10192000C0E0D0E00FC0D6016D916D01D701ED91FF
:10193000FC910190F081E02DC7010995C80FD91FD6
:10194000015010400115110571F7CE01DF91CF91C3
:101950001F910F91FF90EF90DF90CF900895EF923D
:10196000FF920F931F938C01DC01ED91FC9101908C
:10197000F081E02D6DE009957C01D801ED91FC919D
:101980000190F081E02DC8016AE009959C012E0DBF
:101990003F1DC9011F910F91FF90EF900895CF93C4
:1019A000DF93EC016115710519F420E030E00FC000
:1019B000DB010D900020E9F71197A61BB70BE8811A
:1019C000F9810280F381E02DAD0109959C01C901E7
:1019D000DF91CF9108954F925F927F928F929F9265
:1019E000AF92BF92CF92DF92EF92FF920F931F932D
:1019F000DF93CF93CDB7DEB7A1970FB6F894DEBFD4
:101A00000FBECDBF2C01742ECB01223008F42AE08A
:101A100019A231E2C32ED12CCC0EDD1E822E9924C8
:101A2000AA24BB24672D752FA50194010E9464157B
:101A300079018A01C801B701A50194010E944515E9
:101A4000472D461B0894C108D1084A3014F4405D64
:101A500001C0495CF6014083E114F1040105110560
:101A600021F07E2C5F2DC801DDCFC201B6010E949E
:101A7000CF0CA1960FB6F894DEBF0FBECDBFCF91AD
:101A8000DF911F910F91FF90EF90DF90CF90BF906B
:101A9000AF909F908F907F905F904F900895DC0162
:101AA0002115310541F4ED91FC910190F081E02D7B
:101AB000642F099508950E94EB0C0895CF92DF9250
:101AC000EF92FF920F931F93CF93DF93EC016A0184
:101AD0007B012115310541F4E881F9810190F08104
:101AE000E02D642F09951FC02A303105D1F477FF0E
:101AF00017C0E881F9810190F081E02D6DE2099530
:101B00008C0144275527BA014C195D096E097F09DC
:101B1000CE012AE00E94EB0C9801280F391F04C067
:101B20002AE00E94EB0C9C01C901DF91CF911F912B
:101B30000F91FF90EF90DF90CF900895EF92FF927A
:101B40000F931F937C010E945E0D8C01C7010E94C0
:101B5000AF0C9C01200F311FC9011F910F91FF9005
:101B6000EF9008950E94CF0C08957F928F929F92DC
:101B7000AF92BF92CF92DF92EF92FF920F931F939B
:101B8000CF93DF934C017A018B01722ECB01BA0106
:101B9000A80197010E944115882321F0C4016EE736
:101BA00072E021C0C0E0D0E057016801E894D7F8A6
:101BB000C601B5012FEF3FEF4FE75FE70E944115E8
:101BC000882351F4C601B5012FEF3FEF4FE75FE7E0
:101BD0000E948B13181614F0C1E0D0E0219739F061
:101BE000C40162E872E00E94CF0CEC0193C0C8010E
:101BF000B7012FEF3FEF4FE75FE40E94DA141816AA
:101C000054F0C801B7012FEF3FEF4FE75FEC0E94A0
:101C10008B13882324F4C40166E872E0E4CFC80182
:101C2000B70120E030E040E050E00E948B1387FDD8
:101C300003C0C0E0D0E00EC0D401ED91FC91019052
:101C4000F081E02DC4016DE20995EC0117FB1095C0
:101C500017F9109520E030E040E05FE3DD240BC091
:101C6000CA01B90120E030E040E251E40E948F1344
:101C70009B01AC01D394D71498F3C801B7010E941B
:101C800027135B016C010E94FC137B018C01C401D2
:101C9000B801A7012AE030E00E944F0DC80FD91FFC
:101CA000772039F0C4016AE872E00E94CF0CC80FB7
:101CB000D91FC801B7010E9428149B01AC01C601BD
:101CC000B5010E94261324C020E030E040E251E438
:101CD0000E94DE147B018C010E94F7135B016C01F2
:101CE000CC24B7FCC094DC2CC401B601A5012AE0C9
:101CF00030E00E945E0DC80FD91FC601B5010E94D9
:101D00002A149B01AC01C801B7010E9426137A94E2
:101D10007720D1F6CE01DF91CF911F910F91FF90E7
:101D2000EF90DF90CF90BF90AF909F908F907F907B
:101D300008950E94B50D0895EF92FF920F931F939F
:101D40007C010E94CF0C8C01C7010E94AF0C080FD0
:101D5000191FC8011F910F91FF90EF9008959FB731
:101D6000F89487708093E9008091F2009FBF0895F6
:101D7000282F8091C9038823C1F057FF1AC015C0CE
:101D8000289A9093C8038091F1008193E217F3079A
:101D9000B9F74115510539F08091F200882319F403
:101DA0008BE68093E800AFBF02C04FEF5FEFCA0140
:101DB0000895AFB7F89427702093E9008091F2005E
:101DC000282F30E0241735070CF4A901FB019B01F3
:101DD000240F311D94E6DACFDF93CF930F92CDB766
:101DE000DEB7BE016F5F7F4F41E050E00E94B80E4A
:101DF000019719F02FEF3FEF03C08981282F30E0C2
:101E0000C9010F90CF91DF910895FF920F931F9317
:101E1000F82E142F052F4091CC035091CD03212F84
:101E2000302FC901DC01FB016EEF29C0F7FE02C0B3
:101E3000949101C090812091CA033091CB03241763
:101E40003507ACF48091E8008570E1F38091E800FB
:101E500082FF03C02FEF3FEF17C09093F100C9013D
:101E600001968F739070892B11F46093E8002F5FB7
:101E70003F4F3093CB032093CA03119731961097AD
:101E8000A9F6812F902F9C01C9011F910F91FF90FE
:101E900008959C018091E80082FFFCCFF901260F94
:101EA000311D03C08091F1008193E217F307D1F750
:101EB000289A84E68093C8038BEF8093E800CB01D7
:101EC00008958093E9008091F200882319F08AE355
:101ED0008093E80008951F920F920FB60F9211247D
:101EE0008F939F938091E1001092E100982F83FFE0
:101EF0000FC01092E90081E08093EB001092EC009B
:101F000082E38093ED001092C90388E08093F00093
:101F100092FF26C083E08093E9008091F20088233D
:101F200019F08AE38093E8008091C703882351F079
:101F30008091C70381508093C7038091C703882392
:101F400009F45D988091C803882351F08091C803FB
:101F500081508093C8038091C803882309F428988E
:101F60009F918F910F900FBE0F901F90189508951D
:101F70001092C90381E08093D70080EA8093D80053
:101F800082E089BD09B400FEFDCF61E070E080E031
:101F900090E00E94360A80E98093D8008CE080931C
:101FA000E2001092E000559A209A5D9828980895D2
:101FB0005F926F927F928F929F92AF92BF92CF92D9
:101FC000DF92EF92FF920F931F93CF93DF93E82E50
:101FD000842E752E8091C903882371F18B01242FE3
:101FE000352FC901EC017AEFF72E67E0962E9E207F
:101FF00050E4552E8E2D90E040E2A42EB12CA82264
:10200000B9223AE3632E20E4C22ED12CC822D92271
:102010005CC09FB7F8949092E9008091E80085FD3C
:1020200002C020E004C08091F200252D281B9FBF34
:10203000222361F4FA9419F42FEF3FEF51C061E0CD
:1020400070E080E090E00E94360A3FC0822F90E06E
:10205000C817D9070CF42C2F4FB7F8949092E900C9
:102060008091E80085FF30C0C21BD109A114B104E2
:1020700021F406C01092F10021502223D9F719C093
:10208000E7FC03C0F801922F10C0C801322F06C030
:10209000FC010196E491E093F10031503323C1F744
:1020A00006C081918093F10091509923D1F7020FDE
:1020B000111D8091E80085FF05C0209729F4C11407
:1020C000D10411F06092E8004FBF209709F0A1CF32
:1020D0005D9A84E68093C703282D372DC9019C01A2
:1020E000C901DF91CF911F910F91FF90EF90DF9089
:1020F000CF90BF90AF909F908F907F906F905F90A8
:1021000008950F931F93DF93CF930F92CDB7DEB750
:1021100019828E010F5F1F4FC8010E940D0CC8016C
:102120000E941A13898190E00F90CF91DF911F9147
:102130000F9108951F920F920FB60F921124EF92F4
:10214000FF921F932F933F934F935F936F937F93D0
:102150008F939F93AF93BF93EF93FF93DF93CF93AF
:10216000CDB7DEB76197DEBFCDBF1092E900809199
:10217000E80083FF0FC1FE0131969E01275F3F4FAC
:1021800003C08091F1008193E217F307D1F7289AF9
:1021900084E68093C80382EF8093E800998197FFDB
:1021A00005C08091E80080FFFCCF03C08EEF8093D4
:1021B000E800292F30E0C90180769070892B09F062
:1021C000C2C08A81882329F41092F1001092F10094
:1021D000D6C0813009F4D3C0833009F4D0C0853033
:1021E00049F48091E80080FFFCCF8B818068809368
:1021F000E300C5C0863009F07CC01C81EF80F88404
:102200001230C1F51092E9001092CB031092CA036C
:102210001092CD031092CC030E94811099E0FE0130
:102220003996DF01292F1D922A95E9F799871A8798
:1022300091E09E8790E8988B9AEF998B2091CA0342
:102240003091CB03275F3F4F3C872B878D871092C0
:10225000E9001092CB031092CA03F092CD03E092F2
:10226000CC0380E0BF0149E050E00E94050F0E94CE
:10227000811085C01092E9001092CB031092CA031E
:10228000F092CD03E092CC03123241F482E290E06E
:102290000E941213892B09F476C071C0113079F4B1
:1022A00088E0E816F10419F481E08093CE03809170
:1022B000CE03882309F06BC0EEEAF1E013C01330BF
:1022C00009F061C08B81882319F4E0E7F1E00AC0CE
:1022D000823019F4E4E7F1E005C0813009F053C021
:1022E000E6E9F1E0449180E8BF0150E00E94050F6B
:1022F00046C0873009F447C0883021F481E08093DC
:10230000F1003DC08930D9F523703070232BD9F509
:10231000E3EDF1E091E031E026E39093E9003093C2
:10232000EB0084918093EC002093ED009F5F319649
:10233000953099F78EE78093EA001092EA008B813E
:102340008093C9031CC08F8198851092E900109278
:10235000CB031092CA039093CD038093CC038D815D
:10236000882329F4CE0101960E94190C06C0823000
:1023700051F4CE0101960E94E311882321F08EEFE3
:102380008093E80007C081E28093EB0003C0E0EC9B
:10239000F1E0A8CF6196DEBFCDBFCF91DF91FF9175
:1023A000EF91BF91AF919F918F917F916F915F91CD
:1023B0004F913F912F911F91FF90EF900F900FBE83
:1023C0000F901F901895FC0191818081813A31F422
:1023D000913089F080E0933089F40DC0813269F446
:1023E0009B3021F4828180939C0205C09A3029F4AD
:1023F000828180939D0281E0089580E00895EF92AC
:10240000FF920F931F938C01E62EDC01ED91FC915E
:102410000480F581E02D0995F82ED801ED91FC910D
:102420000680F781E02DC8016E2D09958F2D90E073
:102430001F910F91FF90EF9008951092D00310928A
:10244000D4031092D3038CEC92E09093D203809348
:10245000D1030895EF92FF920F931F93DF93CF93D1
:102460000F92CDB7DEB789838B017A0184E0BE017C
:102470006F5F7F4F41E050E00E94D80F84E4B801C5
:10248000A7010E94D80F0F90CF91DF911F910F915C
:10249000FF90EF90089582E048E050E00E942A12F9
:1024A0000895FC0116821782108611861286138603
:1024B00014823496BF010E944B120895DC016838E3
:1024C00010F0685829C0E62FF0E067FF13C0E0580D
:1024D000F04081E090E002C0880F991FEA95E2F792
:1024E000809514962C911497282314962C93149766
:1024F00060E012C0EB5AFD4F6491662319F420E0AE
:1025000030E01DC067FF08C014968C9114978D7F32
:1025100014968C9314976F77FD0190E0662321F059
:102520008681861709F416829F5F31969630B1F73F
:10253000CD011496BD010E944B1221E030E0C9018B
:102540000895CF93DF93DC01683810F0685825C0F8
:10255000E62FF0E067FF12C0E058F04081E090E025
:1025600002C0880F991FEA95E2F714962C911497F0
:10257000282B14962C93149760E00FC0EB5AFD4F54
:1025800064916623D9F167FF08C014968C91149763
:10259000826014968C9314976F7716968C91169789
:1025A0008617A9F117968C911797861781F11896BF
:1025B0008C911897861759F119968C91199786174F
:1025C00031F11A968C911A97861709F11B968C9106
:1025D0001B978617E1F0ED01E0E0F0E09E2F8E8181
:1025E000882321F4EA0FFB1F668306C09F5F3196A4
:1025F0002196E630F10591F7963049F481E090E0BC
:1026000013969C938E93129720E030E007C0CD0183
:102610001496BD010E944B1221E030E0C901DF9108
:10262000CF91089580E867ED71E045E650E00E94A3
:10263000050F0895FC0180818F5F808380E86CE343
:1026400072E049E150E00E94050F08955058BB2701
:10265000AA270ED075C166D130F06BD120F031F4CD
:102660009F3F11F41EF45BC10EF4E095E7FB51C1EE
:10267000E92F77D180F3BA176207730784079507AC
:1026800018F071F49EF58FC10EF4E0950B2EBA2F61
:10269000A02D0B01B90190010C01CA01A001112468
:1026A000FF27591B99F0593F50F4503E68F11A1614
:1026B000F040A22F232F342F4427585FF3CF4695A5
:1026C00037952795A795F0405395C9F77EF41F16C7
:1026D000BA0B620B730B840BBAF09150A1F0FF0F91
:1026E000BB1F661F771F881FC2F70EC0BA0F621F7D
:1026F000731F841F48F4879577956795B795F7956D
:102700009E3F08F0B3CF9395880F08F09927EE0FFE
:10271000979587950895D9D008F481E008950CD055
:102720000FC107D140F0FED030F021F45F3F19F027
:10273000F0C0511139C1F3C014D198F39923C9F3F2
:102740005523B1F3951B550BBB27AA2762177307B7
:10275000840738F09F5F5F4F220F331F441FAA1F6B
:10276000A9F333D00E2E3AF0E0E830D0915050402B
:10277000E695001CCAF729D0FE2F27D0660F771FD9
:10278000881FBB1F261737074807AB07B0E809F0BB
:10279000BB0B802DBF01FF2793585F4F2AF09E3F50
:1027A000510568F0B6C000C15F3FECF3983EDCF322
:1027B000869577956795B795F7959F5FC9F7880FC9
:1027C000911D9695879597F90895E1E0660F771F1B
:1027D000881FBB1F621773078407BA0720F0621BAC
:1027E000730B840BBA0BEE1F88F7E095089504D0A5
:1027F0006894B111D9C00895BCD088F09F5790F06B
:10280000B92F9927B751A0F0D1F0660F771F881F15
:10281000991F1AF0BA95C9F712C0B13081F0C3D030
:10282000B1E00895C0C0672F782F8827B85F39F0CE
:10283000B93FCCF3869577956795B395D9F73EF474
:1028400090958095709561957F4F8F4F9F4F08951C
:10285000E89409C097FB3EF490958095709561953A
:102860007F4F8F4F9F4F9923A9F0F92F96E9BB27F0
:102870009395F695879577956795B795F111F8CF6C
:10288000FAF4BB0F11F460FF1BC06F5F7F4F8F4FD7
:102890009F4F16C0882311F096E911C0772321F0CD
:1028A0009EE8872F762F05C0662371F096E8862F65
:1028B00070E060E02AF09A95660F771F881FDAF7BC
:1028C000880F9695879597F90895990F0008550FE9
:1028D000AA0BE0E8FEEF16161706E807F907C0F0A6
:1028E00012161306E407F50798F0621B730B840BAE
:1028F000950B39F40A2661F0232B242B252B21F488
:1029000008950A2609F4A140A6958FEF811D811D27
:10291000089597F99F6780E870E060E008959FEF61
:1029200080EC089500240A94161617061806090666
:10293000089500240A941216130614060506089535
:10294000092E0394000C11F4882352F0BB0F40F4BD
:10295000BF2B11F460FF04C06F5F7F4F8F4F9F4FFD
:10296000089557FD9058440F551F59F05F3F71F07F
:102970004795880F97FB991F61F09F3F79F08795E6
:102980000895121613061406551FF2CF4695F1DF6F
:1029900008C0161617061806991FF1CF86957105FF
:1029A000610508940895E894BB2766277727CB0133
:1029B00097F908958ADF08F48FEF08950BD0C0CF00
:1029C000B1DF28F0B6DF18F0952309F0A2CFA7CF2A
:1029D0001124EACFC6DFA0F3959FD1F3950F50E005
:1029E000551F629FF001729FBB27F00DB11D639FC1
:1029F000AA27F00DB11DAA1F649F6627B00DA11D67
:102A0000661F829F2227B00DA11D621F739FB00D0C
:102A1000A11D621F839FA00D611D221F749F33277C
:102A2000A00D611D231F849F600D211D822F762F15
:102A30006A2F11249F5750408AF0E1F088234AF012
:102A4000EE0FFF1FBB1F661F771F881F915050405E
:102A5000A9F79E3F510570F05CCFA6CF5F3FECF326
:102A6000983EDCF3869577956795B795F795E7954A
:102A70009F5FC1F7FE2B880F911D9695879597F95B
:102A8000089523DF880B990B0895629FD001739FEF
:102A9000F001829FE00DF11D649FE00DF11D929FFA
:102AA000F00D839FF00D749FF00D659FF00D992739
:102AB000729FB00DE11DF91F639FB00DE11DF91F5D
:102AC000BD01CF0111240895A1E21A2EAA1BBB1B40
:102AD000FD010DC0AA1FBB1FEE1FFF1FA217B307EA
:102AE000E407F50720F0A21BB30BE40BF50B661F00
:102AF000771F881F991F1A9469F7609570958095C4
:102B000090959B01AC01BD01CF010895EE0FFF1F11
:0C2B10000590F491E02D0994F894FFCF9B
:102B1C00583A2000202000593A20005A3A200075DB
:102B2C0054002D2D2D2D2D2D2D2D2D2D2D2D2D2DCF
:102B3C002D2D2D2D2D2D2D2D2D2D2D2D2D2D2D2DB9
:102B4C002D2D2D2D2D2D0053656E736F723A202077
:102B5C002020202020004472697665722056657210
:102B6C003A20202000556E697175652049443A2041
:102B7C00202020004D61782056616C75653A20202C
:102B8C00202000207554004D696E2056616C7565CF
:102B9C003A20202020005265736F6C7574696F6E3B
:102BAC003A20202000004D61676E65746F6D65746E
:102BBC0065722054657374004F6F6F70732C206EA8
:102BCC006F204C534D3330332064657465637465EA
:102BDC0064202E2E2E20436865636B20796F7572EE
:102BEC0020776972696E6721004C534D3330330086
:102BFC0020004368616E67696E672072616E67655D
:102C0C0020746F202B2F2D20382E31004368616EDD
:102C1C0067696E672072616E676520746F202B2F59
:102C2C002D20352E36004368616E67696E67207201
:102C3C00616E676520746F202B2F2D20342E37008A
:102C4C004368616E67696E672072616E6765207498
:102C5C006F202B2F2D20342E30004368616E676956
:102C6C006E672072616E676520746F202B2F2D208C
:102C7C00322E35004368616E67696E672072616E33
:102C8C00676520746F202B2F2D20312E39006E613B
:102C9C006E00696E66006F7666002E0000808944B7
:102CAC000000754400E1000000000000010100007C
:102CBC00000066033503EE02F7020C031D0300004F
:102CCC0000003C06F9073F0600000000860BBB0B1A
:102CDC00F90BD80BE80BD40B00000000FF11850C8E
:062CEC00A1125E1251125C
:00000001FF
