:100000000C9486010C94AE010C94AE010C94AE01DC
:100010000C94AE010C94AE010C94AE010C94AE01A4
:100020000C94AE010C94AE010C9482110C94B1129C
:100030000C94AE010C94AE010C94AE010C94AE0184
:100040000C94AE010C94AE010C94AE010C94AE0174
:100050000C94AE010C94AE010C94AE010C94D80B30
:100060000C94AE010C94AE010C94AE010C94AE0154
:100070000C94AE010C94AE010C94AE010C94AE0144
:100080000C94AE010C94AE010C94AE010C94AE0134
:100090000C9435050C94AE010C94AE010C94AE0199
:1000A0000C94AE010C94AE010C94AE01084AD73BFF
:1000B0003BCE016E84BCBFFDC12F3D6C74319ABD37
:1000C00056833DDA3D00C77F11BED9E4BB4C3E915B
:1000D0006BAAAABE000000803F0000000024002799
:1000E000002A002D00300000000000250028002B11
:1000F000002E003100000000002300260029002C03
:10010000002F000404040404030405020202020494
:1001100003020202020606060606060404020202A2
:1001200004040802011040804010204080408008F4
:100130000204018040201002011080102040400085
:1001400000000200080E0000030401000B0000077D
:100150000605040100080A0B0C0D09080B00020239
:100160000201000904000001020200000524001041
:1001700001052401010104240206052406000107EB
:1001800005810310004009040100020A0000000775
:100190000502024000000705830240000004030935
:1001A000042203410064006100660072007500696A
:1001B000007400200046006C006F00720061002097
:1001C00000200018034100640061006600720075A1
:1001D00000690074002000200020001201000200CD
:1001E0000000409A23048000010102000112010076
:1001F00002020000409A2304800001010200010075
:10020000C18081C105010902A1010901A100850187
:1002100005091901290315002501950375018102BE
:1002200095017505810305010930093109381581EA
:10023000257F750895038106C0C005010906A10147
:100240008502050719E029E71500250175019508C4
:1002500081029501750881039506750815002565CD
:100260000507190029658100C00904020001030087
:1002700000000921010100012265000705840340F7
:10028000000100000000000000002A2B28000000F0
:10029000000000000000000000000000000000005E
:1002A00000002C9EB4A0A1A2A434A6A7A5AE362D12
:1002B0003738271E1F20212223242526B333B62EAC
:1002C000B7B89F8485868788898A8B8C8D8E8F901E
:1002D0009192939495969798999A9B9C9D2F3130E3
:1002E000A3AD350405060708090A0B0C0D0E0F1007
:1002F0001112131415161718191A1B1C1DAFB1B0C3
:10030000B500BF01D103A20DCE11341411241FBEBC
:10031000CFEFDAE0DEBFCDBF13E0A0E0B1E0ECE666
:10032000F0E302C005900D92A030B107D9F714E0B8
:10033000A0E0B3E001C01D92AA31B107E1F713E0DC
:10034000CCE0D3E004C02297FE010E943018C230F6
:10035000D107C9F70E94740E0C9434180C94000055
:10036000FB01DC014150504048F001900D9200200B
:10037000C9F701C01D9241505040E0F7089580E058
:1003800093E049E350E360E070E00E94EF068AE109
:1003900093E041E354ED60E070E00E94E5060895CB
:1003A000EF92FF920F931F93DF93CF93CDB7DEB7FA
:1003B000C854D0400FB6F894DEBF0FBECDBF80E06A
:1003C00093E0BE016F5F7F4F0E94FD098AE193E0D9
:1003D000BE016B5D7F4F0E94980886EF93E060E05E
:1003E00071E00E94B60F4D895E896F89788D86EF26
:1003F00093E022E030E00E949D1086EF93E064E0FD
:1004000071E00E94B60F86EF93E067E071E00E9412
:10041000B60F498D5A8D6B8D7C8D86EF93E022E06F
:1004200030E00E949D1086EF93E064E071E00E944E
:10043000B60F86EF93E06BE071E00E94B60F4D8D32
:100440005E8D6F8D78A186EF93E022E030E00E9410
:100450009D1086EF93E064E071E00E94B60F86EF96
:1004600093E06FE071E00E94B310698D7A8D8B8DFF
:100470009C8D2D893E894F89588D0E94B11520E0B1
:1004800030E044E353E40E9483172BED3FE049E45E
:1004900050E40E9408167B018C0120E030E040E02F
:1004A00050E00E940416882354F4C801B70120E0EC
:1004B00030E044EB53E40E943E157B018C0186EF53
:1004C00093E062E171E00E94B60F86EF93E0B8011D
:1004D000A70122E030E00E94A01086EF93E060E0E8
:1004E00071E00E94B60F49AD5AAD6BAD7CAD86EFA1
:1004F00093E022E030E00E949D1086EF93E064E0FC
:1005000071E00E94B60F86EF93E067E071E00E9411
:10051000B60FFE01FD96408151816281738186EFA5
:1005200093E022E030E00E949D1086EF93E064E0CB
:1005300071E00E94B60F86EF93E06BE071E00E94DD
:10054000B60FFE01EF5BFF4F4081518162817381E5
:1005500086EF93E022E030E00E949D1086EF93E06A
:1005600064E071E00E94B60F86EF93E064E271E010
:100570000E94B31064EF71E080E090E00E943A0CBA
:10058000C85BDF4F0FB6F894DEBF0FBECDBFCF9173
:10059000DF911F910F91FF90EF900895CF92DF921E
:1005A000EF92FF920F931F93DF93CF93CDB7DEB7F8
:1005B000A8970FB6F894DEBF0FBECDBF80E093E0E2
:1005C0007E010894E11CF11CB7010E94FD0606EFB4
:1005D00013E09BE2C92E91E0D92EC801B6010E941A
:1005E000B310C80160E571E00E94B60FC801B70101
:1005F0000E94B310C8016FE571E00E94B60F4D85EF
:100600005E856F857889C8012AE030E00E94A20FDC
:10061000C8016EE671E00E94B60F49895A896B895C
:100620007C89C8012AE030E00E94A20FC8016DE772
:1006300071E00E94B60F498D5A8D6B8D7C8DC8017B
:1006400022E030E00E949D108CE8E82E81E0F82E38
:10065000C801B7010E94B310C80160E971E00E94AF
:10066000B60F4D8D5E8D6F8D78A1C80122E030E010
:100670000E949D10C801B7010E94B310C8016FE924
:1006800071E00E94B60F49A15AA16BA17CA1C801DB
:1006900022E030E00E949D10C801B7010E94B31013
:1006A000C801B6010E94B310C8016EEA71E00E9451
:1006B000B31064EF71E080E090E00E943A0CA896DD
:1006C0000FB6F894DEBF0FBECDBFCF91DF911F9163
:1006D0000F91FF90EF90DF90CF90089586EF93E019
:1006E00040E855E260E070E00E94840D86EF93E000
:1006F0006FEA71E00E94B31086EF93E06EEA71E05A
:100700000E94B31080E093E061E00E94FA0680E06E
:1007100093E00E94B90B882339F486EF93E061ECF3
:1007200071E00E94B310FFCF0E94CE02089581E0D5
:100730008093720360934F031092700310927103C1
:10074000089520914E0330E080914D03281B31091C
:10075000C901089540914D0380914E03481718F048
:100760002FEF3FEF0AC0E42FF0E0E35DFC4F808104
:10077000282F30E04F5F40934D03C9010895E09169
:100780004D0380914E03E81718F0EFEFFFEF06C01E
:10079000F0E0E35DFC4F8081E82FF0E0CF010895A9
:1007A0000895109276031092750388EE93E0A0E00E
:1007B000B0E08093770390937803A0937903B0938C
:1007C0007A0382EC92E0909374038093730308950C
:1007D000CF92DF92EF92FF920F931F93CF93DF930D
:1007E0007C016B018A01809172038823A1F0C0E033
:1007F000D0E00DC0D701ED91FC91D601AC0FBD1F2B
:100800000190F081E02DC7016C9109952196C017E8
:10081000D10780F304C0CB01642F0E941A05C801E0
:10082000DF91CF911F910F91FF90EF90DF90CF90CC
:100830000895DF93CF930F92CDB7DEB7FC016983A4
:10084000809172038823C9F080917103803238F05F
:1008500081E090E09383828320E030E015C08091B6
:100860007003E82FF0E0E05BFC4F998190838F5F8D
:10087000809370038093710305C0CE01019661E0FF
:100880000E941A0521E030E0C9010F90CF91DF915D
:1008900008950F93062F80914F0360E573E0409118
:1008A000710321E00E94C50410927003109271033D
:1008B000109272030F91089561E00E944904089517
:1008C000413208F040E2862F6DE273E00E947C0422
:1008D00010924D0380934E03089521E00E9460041E
:1008E000089510924D0310924E03109270031092CF
:1008F00071030E94C6060895382F413210F040E07F
:1009000042C080917F038823E1F791E090937F03B9
:10091000209381038FEF8093EC031092A703415043
:100920004093A8034F5F9093800380918003330F1F
:10093000832B8093800380918203813041F4109255
:100940008203809180038093BB0085EC01C085EE1B
:100950008093BC0080917F038130E1F38091A703F5
:10096000841710F44091A70320E030E00AC0FB0197
:10097000E20FF31FD901A957BC4F8C9180832F5FE1
:100980003F4F2417A0F3842F08950F931F93582FE0
:10099000122F413210F081E04AC080917F038823FA
:1009A000E1F782E080937F03009381038FEF8093D0
:1009B000EC031092A7034093A803A7E8B3E0FB0160
:1009C00002C081918D938E2F861B8417D0F31092D5
:1009D000800380918003550F852B80938003809145
:1009E0008203813041F410928203809180038093CE
:1009F000BB0085EC01C085EE8093BC00112321F083
:100A000080917F038230E1F38091EC038F3F11F4FA
:100A100080E00DC08091EC03803211F482E007C0C9
:100A20008091EC03803311F084E001C083E01F91DA
:100A30000F910895482F613210F081E00895809160
:100A40007F03843011F082E008956093CA03A9EA1D
:100A5000B3E0842F9C01F90102C081918D938E2F08
:100A6000841B8617D0F380E008951F920F920FB673
:100A70000F9211242F933F934F935F936F937F9324
:100A80008F939F93AF93BF93EF93FF938091B900A0
:100A900090E0887F90708036910509F4F2C081362D
:100AA0009105CCF58832910509F47BC08932910516
:100AB000B4F48031910509F46FC0813191053CF4A3
:100AC000009709F447C1089709F04FC165C0883104
:100AD000910509F466C0809709F047C182C080344F
:100AE000910509F4A4C08134910544F48033910543
:100AF00009F482C0C89709F038C189C080359105D2
:100B000009F489C08835910509F496C088349105A7
:100B100009F02BC1AEC08839910509F413C1893998
:100B20009105ECF48837910509F4ABC0893791053C
:100B30004CF48836910509F4A4C08037910509F07A
:100B400014C19FC08838910509F4FCC08039910513
:100B500009F49DC08038910509F007C198C0803B19
:100B6000910509F4C6C0813B91054CF4803A91058A
:100B700009F49FC0883A910509F0F7C0BAC0803CDB
:100B8000910509F4E3C0883C910509F4DFC0883B76
:100B9000910509F0EAC0C2C0809180038093BB0038
:100BA000CFC09091A7038091A803981768F4909103
:100BB000A703E92FF0E0E957FC4F80818093BB0049
:100BC0009F5F9093A703BCC080918103882309F4A1
:100BD0004BC085ED8093BC008091BC0084FDFCCFB0
:100BE000C2C080E28093EC0385ED8093BC008091CD
:100BF000BC0084FDFCCFB7C080E38093EC0385ED9F
:100C00008093BC008091BC0084FDFCCFACC088E325
:100C10008093EC039BC08091A7039091BB00E82FC9
:100C2000F0E0E957FC4F90838F5F8093A70390918A
:100C3000A7038091A80382C08091A7039091BB0075
:100C4000E82FF0E0E957FC4F90838F5F8093A70374
:100C500080918103882341F085ED8093BC008091D1
:100C6000BC0084FDFCCF7FC081E08093820384EAD6
:100C70006EC085ED8093BC008091BC0084FDFCCFEC
:100C800072C083E080937F031092EB0359C0809180
:100C9000EB03803208F056C08091EB039091BB00CB
:100CA000E82FF0E0E553FC4F90838F5F8093EB03D8
:100CB00047C08091EB03803230F4E091EB03F0E029
:100CC000E553FC4F108285ED8093BC008091BC0001
:100CD00084FDFCCF10927F036091EB03E0918503CC
:100CE000F09186038BEC93E070E009951092EB0392
:100CF0002DC084E080937F031092C9031092CA0331
:100D0000E0918303F091840309958091CA038823BD
:100D100029F481E08093CA031092A9039091C9033A
:100D2000E92FF0E0E755FC4F80818093BB009F5F87
:100D30009093C9039091C9038091CA03981710F446
:100D400085EC01C085E88093BC000FC085EC8093E2
:100D5000BC0009C01092EC0385ED8093BC0080912B
:100D6000BC0084FDFCCF10927F03FF91EF91BF91F7
:100D7000AF919F918F917F916F915F914F913F9133
:100D80002F910F900FBE0F901F90189510927F0318
:100D900081E0809381031092820382E061E00E94EF
:100DA000510D83E061E00E94510DE9EBF0E080819C
:100DB0008E7F808380818D7F808380E28093B800E6
:100DC00085E48093BC0008950895FC018CED92E0C9
:100DD000918380834787508B618B728B0895FC01D0
:100DE00082ED92E091838083458B568B678B708F69
:100DF000118E0895FC01618F0895EF92FF920F9379
:100E00001F937C018B0188E2FB0111928A95E9F71F
:100E1000CB0169EF71E04BE050E00E94B001F801B6
:100E2000138681E090E0A0E0B0E084879587A687F4
:100E3000B787F70185899689A789B08DF801808BDE
:100E4000918BA28BB38B82E090E0A0E0B0E0848B2A
:100E5000958BA68BB78B14A215A216A217A280E0C1
:100E600090E0A0E0B0E0808F918FA28FB38F848F4D
:100E7000958FA68FB78F80A391A3A2A3B3A31F9131
:100E80000F91FF90EF900895EF92FF920F931F93B1
:100E90007C018B0188E2FB0111928A95E9F7CB0175
:100EA00069EF71E04BE050E00E94B001F801138659
:100EB00021E030E040E050E02487358746875787BF
:100EC000F70187859089A189B289F801808B918B80
:100ED000A28BB38B248B358B468B578B14A215A218
:100EE00016A217A280E090E0A0E0B0E0808F918F82
:100EF000A28FB38F848F958FA68FB78F80A391A376
:100F0000A2A3B3A31F910F91FF90EF9008959F921A
:100F1000AF92BF92CF92DF92EF92FF920F931F9307
:100F2000CF93DF93EC0183E793E06EE10E94970398
:100F300083E793E063E00E94190483E793E00E9453
:100F40005C0483E793E06EE146E00E946D0483E772
:100F500093E00E94A1030697D4F383E793E00E94F5
:100F6000AA03A82E83E793E00E94AA03E82E83E752
:100F700093E00E94AA03982E83E793E00E94AA03BD
:100F8000C82E83E793E00E94AA03B82E83E793E07C
:100F90000E94AA03082F7A2D60E0FF246E297F2982
:100FA000882777FD8095982F0E94A3166D837E83F6
:100FB0008F8398877B2D60E010E0602B712B882752
:100FC00077FD8095982F0E94A31669877A878B8773
:100FD0009C87792D60E0DD246C297D29882777FDA9
:100FE0008095982F0E94A3166D877E878F87988B98
:100FF00080E090E0A0E0B0E0898B9A8BAB8BBC8B5B
:10100000DF91CF911F910F91FF90EF90DF90CF90E4
:10101000BF90AF909F9008959F92AF92BF92CF9252
:10102000DF92EF92FF920F931F93CF93DF93EC0128
:1010300083E793E069E10E94970383E793E068EA1E
:101040000E94190483E793E00E945C0483E793E025
:1010500069E146E00E946D0483E793E00E94A103EA
:101060000697D4F383E793E00E94AA03082F83E74F
:1010700093E00E94AA03B82E83E793E00E94AA039C
:10108000E82E83E793E00E94AA03A82E83E793E06B
:101090000E94AA03C82E83E793E00E94AA03982E19
:1010A0007B2D60E010E0602B712B24E07595679537
:1010B0002A95E1F7882777FD8095982F0E94A3163F
:1010C0006B837C838D839E837A2D60E0FF246E2961
:1010D0007F2994E0759567959A95E1F7882777FDC4
:1010E0008095982F0E94A3166F83788789879A87A7
:1010F000792D60E0DD246C297D2984E07595679564
:101100008A95E1F7882777FD8095982F0E94A3168E
:101110006B877C878D879E87DF91CF911F910F9181
:10112000FF90EF90DF90CF90BF90AF909F90089589
:10113000EF92FF920F931F937C018B0184E2FB01DE
:1011400011928A95E9F7C7010E940C0884E290E0A9
:10115000A0E0B0E0F80180839183A283B383F7011C
:1011600087859089A189B289F80184839583A683B4
:10117000B78381E090E0A0E0B0E080879187A2870C
:10118000B3870E942C0CF801608B718B828B938B40
:10119000F70163817481858196812FE632E143E80E
:1011A0005AE30E9483172AE038EE4CE151E40E9492
:1011B0008317F801648B758B868B978BF70167819A
:1011C0007085818592852FE632E143E85AE30E94DB
:1011D00083172AE038EE4CE151E40E948317F801AE
:1011E000608F718F828F938FF701638574858585FA
:1011F00096852FE632E143E85AE30E9483172AE0FE
:1012000038EE4CE151E40E948317F801648F758F2A
:10121000868F978F1F910F91FF90EF900895EF9217
:10122000FF920F931F93E62EF42E03E713E0C801FD
:101230000E949703C8016F2D0E941904C8010E94E3
:101240005C04C8016E2D41E00E946D04C8010E943B
:10125000AA03F82EC8010E945C048F2D1F910F91E4
:10126000FF90EF900895EF92FF920F931F93F42E4B
:10127000E22E03E713E0C8010E949703C8016F2D17
:101280000E941904C8016E2D0E941904C8010E9411
:101290005C041F910F91FF90EF9008950F931F939F
:1012A000CF93DF938C01EB016EE141E02C2F0E9484
:1012B0003309F801D483C383C038D10509F44DC084
:1012C000C138D10554F4C034D10529F1C036D10557
:1012D00099F1A09709F08CC00DC0C03CD10509F46C
:1012E0005EC0C03ED10509F46BC0C03AD10509F01B
:1012F0007FC044C080E090E8A9E8B4E48093AC02E9
:101300009093AD02A093AE02B093AF0280E090E064
:10131000A5E7B4E465C080E090ECA5E5B4E4809373
:10132000AC029093AD02A093AE02B093AF0280E006
:1013300090E0AEE3B4E454C080E090E8A7E2B4E407
:101340008093AC029093AD02A093AE02B093AF0233
:1013500080E090E0A6E1B4E443C080E090E0A1EE3C
:10136000B3E48093AC029093AD02A093AE02B0932D
:10137000AF0280E090E0A8ECB3E432C080E090E0FF
:10138000A8ECB3E48093AC029093AD02A093AE02BC
:10139000B093AF0280E090E8A1EBB3E421C080E01D
:1013A00090E0A5EAB3E48093AC029093AD02A093E1
:1013B000AE02B093AF0280E090E8A3E9B3E410C0BE
:1013C00080E090E0A6E6B3E48093AC029093AD0297
:1013D000A093AE02B093AF0280E090E0ADE4B3E43E
:1013E0008093B0029093B102A093B202B093B30283
:1013F000DF91CF911F910F9108952F923F924F92BD
:101400005F926F927F928F929F92AF92BF92CF9294
:10141000DF92EF92FF920F931F93DF93CF9300D051
:1014200000D0CDB7DEB71C012B0184E2DB011D9299
:101430008A95E9F7C1010E948707F101818D882310
:1014400009F40CC1458156816781708586EF93E070
:1014500022E030E00E949D1086EF93E060E072E0B1
:101460000E94B60FD10119964D915D916D917C91BD
:101470001C9786EF93E022E030E00E949D1086EFFB
:1014800093E060E072E00E94B60FF1014585568559
:101490006785708986EF93E022E030E00E949D101E
:1014A00086EF93E060E072E00E94B310D1011596E0
:1014B0008D919D910D90BC91A02D89839A83AB83D2
:1014C000BC83F101E184F2840385148585849684CC
:1014D000A784B08866247724C801B70120E030E0F3
:1014E0004FEF54EC0E94041618161CF041E0642ED5
:1014F000712CCC24DD24C801B70120E030E04FEF8F
:1015000054E40E94781788231CF031E0C32ED12CBC
:101510007301EC28FD2800E010E0C501B40120E0D3
:1015200030E04FEF54E40E947817882314F001E074
:1015300010E0E02AF12A00E010E0C501B40120E04B
:1015400030E04FEF54EC0E940416181614F001E03E
:1015500010E00E291F29FF2469817A818B819C81EB
:1015600020E030E04FEF54E40E947817882314F015
:10157000FF24F394EE2469817A818B819C8120E0A1
:1015800030E04FEF54EC0E940416181614F0EE24CD
:10159000E394FE288F2D90E0082B192B012B09F4E2
:1015A0005DC0D10113968D919C9114978036910561
:1015B000A9F1813691054CF48032910509F442C0BD
:1015C0008034910509F04AC033C0803A910591F00A
:1015D000803C910529F08038910509F03FC014C086
:1015E000C10160EE70E00E944E0986EF93E062E078
:1015F00072E031C0C10160EC70E00E944E0986EFDC
:1016000093E06CE172E027C0C10160EA70E00E94E3
:101610004E0986EF93E066E372E01DC0C10160E809
:1016200070E00E944E0986EF93E060E572E013C01F
:10163000C10160E670E00E944E0986EF93E06AE621
:1016400072E009C0C10160E470E00E944E0986EFBB
:1016500093E064E872E00E94B310ECCE84E290E084
:10166000A0E0B0E0F20180839183A283B383F10113
:1016700085899689A789B08DF20184839583A68395
:10168000B78382E090E0A0E0B0E080879187A287F6
:10169000B3870E942C0CD20150966D937D938D934D
:1016A0009C935397E090AC02F090AD020091AE0293
:1016B0001091AF02F1016581768187819085A80143
:1016C00097010E94081620E030E048EC52E40E94A6
:1016D0008317D20154966D937D938D939C93579766
:1016E000F1016185728583859485A80197010E9427
:1016F000081620E030E048EC52E40E948317D20143
:1017000058966D937D938D939C935B97F1016585BE
:101710007685878590892091B0023091B102409101
:10172000B2025091B3020E94081620E030E048EC6B
:1017300052E40E948317D2015C966D937D938D9342
:101740009C935F970F900F900F900F90CF91DF9128
:101750001F910F91FF90EF90DF90CF90BF90AF90CF
:101760009F908F907F906F905F904F903F902F90C1
:101770000895CF93DF93EC0183E793E00E94710417
:10178000CE016EE142E020E00E943309CE016EE11D
:1017900040E00E940F09803111F080E006C0CE01C8
:1017A00060E270E00E944E0981E0DF91CF910895E0
:1017B0001F920F920FB60F9211242F933F934F93C6
:1017C0005F936F937F938F939F93AF93BF9320917A
:1017D000F1033091F2034091F3035091F4037091BF
:1017E000F503DA01C9010296A11DB11D672F6A5FD9
:1017F0006D3730F06D57DA01C9010396A11DB11D97
:101800006093F5038093F1039093F203A093F303A5
:10181000B093F4038091ED039091EE03A091EF0358
:10182000B091F0030196A11DB11D8093ED0390933B
:10183000EE03A093EF03B093F003BF91AF919F919C
:101840008F917F916F915F914F913F912F910F9069
:101850000FBE0F901F9018958FB7F8942091F10349
:101860003091F2034091F3035091F4038FBFB9011B
:10187000CA0108959B01AC017FB7F8948091ED03F4
:101880009091EE03A091EF03B091F00366B5A89B91
:1018900005C06F3F19F00196A11DB11D7FBFBA2F82
:1018A000A92F982F8827860F911DA11DB11D63E0D8
:1018B000880F991FAA1FBB1F6A95D1F7BC012DC0C5
:1018C000FFB7F8948091ED039091EE03A091EF03A0
:1018D000B091F003E6B5A89B05C0EF3F19F0019663
:1018E000A11DB11DFFBFBA2FA92F982F88278E0FDA
:1018F000911DA11DB11DE3E0880F991FAA1FBB1FF9
:10190000EA95D1F7861B970B885E9340C8F2215069
:1019100030404040504068517C4F21153105410511
:10192000510571F60895789484B5826084BD84B5BC
:10193000816084BD85B5826085BD85B5816085BDCA
:10194000EEE6F0E0808181608083E1E8F0E01082E3
:10195000808182608083808181608083E0E8F0E024
:10196000808181608083E1EBF0E08081846080830E
:10197000E0EBF0E0808181608083E1E9F0E080814C
:1019800082608083808181608083E0E9F0E08081F3
:1019900081608083E1ECF0E08081846080838081DD
:1019A00082608083808181608083E3ECF0E08081CD
:1019B00081608083E0ECF0E0808182608083E2ECF3
:1019C000F0E0808181608083EAE7F0E080818460DC
:1019D0008083808182608083808181608083808138
:1019E0008068808308958730C1F1883080F4833027
:1019F000F9F0843030F4813029F1823009F050C0A0
:101A000024C08430C9F0863009F04AC022C08A3030
:101A100091F18B3030F4883031F1893009F040C0D9
:101A200026C08C3091F18C3060F18E30C9F533C016
:101A3000809180008F7703C0809180008F7D80939C
:101A40008000089584B58F7702C084B58F7D84BDF2
:101A500008958091B0008F7703C08091B0008F7D92
:101A60008093B0000895809190008F7707C0809197
:101A700090008F7D03C080919000877F80939000BD
:101A800008958091C0008F7703C08091C0008F7D42
:101A90008093C00008958091C200877F8093C20028
:101AA0000895FF920F931F93F62E482F50E0CA011E
:101AB000815C9E4FFC012491CA018F5D9E4FFC0109
:101AC00014914D5F5E4FFA0104910023C9F0222367
:101AD00019F0822F0E94F30CE02FF0E0EE0FFF1FB1
:101AE000E951FF4FA591B4919FB7F894FF2021F4DD
:101AF0008C911095812302C08C91812B8C939FBF78
:101B00001F910F91FF9008952FEF3FEFFC01358754
:101B100024870895DF93CF930F92CDB7DEB7FC01F2
:101B20006983A081B18112962D913C911397BE01DA
:101B30006F5F7F4F41E050E0F90109950F90CF9121
:101B4000DF9108951092F9031092F80388EE93E064
:101B5000A0E0B0E08093FA039093FB03A093FC0312
:101B6000B093FD0386EE92E09093F7038093F60323
:101B70008FEF9FEF90930304809302040895CF9317
:101B8000DF93EC018091BB02882341F083E00E9447
:101B9000EF111816190614F49C0106C081E090E0BC
:101BA0009B838A8320E030E0C901DF91CF910895C3
:101BB00083E00E9478110895FC012485358537FD66
:101BC00005C08FEF9FEF9587848704C082E00E9455
:101BD00003119C01C9010895CF93DF93EC018C851B
:101BE0009D8597FF05C082E00E9403119D878C8729
:101BF0008C859D85DF91CF910895FC018485958525
:101C000097FD08C082E00E94C610282F30E02F5FA9
:101C10003F4F05C082E00E94C610282F30E0C90166
:101C20000895FC0180818E5F808380E86BE571E020
:101C300042E450E00E941C110895FC0181819081D2
:101C4000913A59F4813209F04CC080E064EB72E0C3
:101C500047E050E00E941C1142C0913209F041C09F
:101C6000803239F484EB92E067E070E00E9460110A
:101C700036C0823209F035C082818093BB028091E8
:101C8000B4029091B502A091B602B091B702805B08
:101C90009440A040B04019F58091BB0280FD12C075
:101CA00087E797E790930108809300082BE088E18D
:101CB00090E00FB6F894A895809360000FBE209333
:101CC00060000DC088E10FB6F89480936000109218
:101CD00060000FBEA895109201081092000881E0E4
:101CE000089580E008950895CF93DF930E94930CA8
:101CF0000E94730E8CE094E00E94CF110E946E034C
:101D0000C0E0D0E00E94D0012097E1F30E940000E3
:101D1000F9CFCF92DF92EF92FF920F931F93CF9361
:101D2000DF937C016B018A01C0E0D0E00FC0D601D7
:101D30006D916D01D701ED91FC910190F081E02D45
:101D4000C7010995C80FD91F015010400115110591
:101D500071F7CE01DF91CF911F910F91FF90EF901E
:101D6000DF90CF900895EF92FF920F931F938C0115
:101D7000DC01ED91FC910190F081E02D6DE0099581
:101D80007C01D801ED91FC910190F081E02DC8011A
:101D90006AE009959C012E0D3F1DC9011F910F910D
:101DA000FF90EF900895CF93DF93EC0161157105DB
:101DB00019F420E030E00FC0DB010D900020E9F7BE
:101DC0001197A61BB70BE881F9810280F381E02D02
:101DD000AD0109959C01C901DF91CF9108954F9202
:101DE0005F927F928F929F92AF92BF92CF92DF923B
:101DF000EF92FF920F931F93DF93CF93CDB7DEB790
:101E0000A1970FB6F894DEBF0FBECDBF2C01742E84
:101E1000CB01223008F42AE019A231E2C32ED12CE2
:101E2000CC0EDD1E822E9924AA24BB24672D752F8B
:101E3000A50194010E940C1879018A01C801B7011B
:101E4000A50194010E94ED17472D461B0894C10877
:101E5000D1084A3014F4405D01C0495CF60140836A
:101E6000E114F1040105110521F07E2C5F2DC8015C
:101E7000DDCFC201B6010E94D30EA1960FB6F89431
:101E8000DEBF0FBECDBFCF91DF911F910F91FF90AD
:101E9000EF90DF90CF90BF90AF909F908F907F900A
:101EA0005F904F900895DC012115310541F4ED91CB
:101EB000FC910190F081E02D642F099508950E9416
:101EC000EF0E0895CF92DF92EF92FF920F931F9340
:101ED000CF93DF93EC016A017B012115310541F4B9
:101EE000E881F9810190F081E02D642F09951FC0F0
:101EF0002A303105D1F477FF17C0E881F9810190CC
:101F0000F081E02D6DE209958C0144275527BA0137
:101F10004C195D096E097F09CE012AE00E94EF0E7F
:101F20009801280F391F04C02AE00E94EF0E9C017F
:101F3000C901DF91CF911F910F91FF90EF90DF903A
:101F4000CF900895EF92FF920F931F937C010E9410
:101F5000620F8C01C7010E94B30E9C01200F311F3C
:101F6000C9011F910F91FF90EF9008950E94D30E29
:101F700008957F928F929F92AF92BF92CF92DF92FD
:101F8000EF92FF920F931F93CF93DF934C017A014F
:101F90008B01722ECB01BA01A80197010E94E917AB
:101FA000882321F0C4016EE972E021C0C0E0D0E0D6
:101FB00057016801E894D7F8C601B5012FEF3FEF4C
:101FC0004FE75FE70E94E917882351F4C601B50186
:101FD0002FEF3FEF4FE75FE70E940416181614F04B
:101FE000C1E0D0E0219739F0C40162EA72E00E94BA
:101FF000D30EEC0193C0C801B7012FEF3FEF4FE7BD
:102000005FE40E947817181654F0C801B7012FEF4B
:102010003FEF4FE75FEC0E940416882324F4C401CD
:1020200066EA72E0E4CFC801B70120E030E040E0AA
:1020300050E00E94041687FD03C0C0E0D0E00EC04F
:10204000D401ED91FC910190F081E02DC4016DE28D
:102050000995EC0117FB109517F9109520E030E079
:1020600040E05FE3DD240BC0CA01B90120E030E0AD
:1020700040E251E40E9408169B01AC01D394D714AE
:1020800098F3C801B7010E943E155B016C010E94E4
:1020900075167B018C01C401B801A7012AE030E06C
:1020A0000E94530FC80FD91F772039F0C4016AEA84
:1020B00072E00E94D30EC80FD91FC801B7010E9459
:1020C000A1169B01AC01C601B5010E943D1524C0BB
:1020D00020E030E040E251E40E9483177B018C0154
:1020E0000E9470165B016C01CC24B7FCC094DC2C00
:1020F000C401B601A5012AE030E00E94620FC80FBA
:10210000D91FC601B5010E94A3169B01AC01C801ED
:10211000B7010E943D157A947720D1F6CE01DF9168
:10212000CF911F910F91FF90EF90DF90CF90BF90D4
:10213000AF909F908F907F9008950E94B90F08955F
:10214000EF92FF920F931F937C010E94B90F8C01B5
:10215000C7010E94B30E080F191FC8011F910F91EC
:10216000FF90EF900895EF92FF920F931F937C01E1
:102170000E94D30E8C01C7010E94B30E080F191FD5
:10218000C8011F910F91FF90EF9008959FB7F894A9
:1021900087708093E9008091F2009FBF0895282FF7
:1021A000809106048823C1F057FF1AC015C0289AF1
:1021B000909305048091F1008193E217F307B9F73A
:1021C0004115510539F08091F200882319F48BE60E
:1021D0008093E800AFBF02C04FEF5FEFCA010895E0
:1021E000AFB7F89427702093E9008091F200282F70
:1021F00030E0241735070CF4A901FB019B01240FE3
:10220000311D94E6DACFDF93CF930F92CDB7DEB7CF
:10221000BE016F5F7F4F41E050E00E94CF100197F9
:1022200019F02FEF3FEF03C08981282F30E0C9015B
:102230000F90CF91DF910895FF920F931F93F82E87
:10224000142F052F4091090450910A04212F302F9B
:10225000C901DC01FB016EEF29C0F7FE02C09491B9
:1022600001C090812091070430910804241735079C
:10227000ACF48091E8008570E1F38091E80082FF82
:1022800003C02FEF3FEF17C09093F100C9010196F3
:102290008F739070892B11F46093E8002F5F3F4F8C
:1022A0003093080420930704119731961097A9F6EC
:1022B000812F902F9C01C9011F910F91FF900895CC
:1022C0009C018091E80082FFFCCFF901260F311DAF
:1022D00003C08091F1008193E217F307D1F7289AA8
:1022E00084E6809305048BEF8093E800CB0108958A
:1022F0008093E9008091F200882319F08AE38093AB
:10230000E80008951F920F920FB60F9211248F9339
:102310009F938091E1001092E100982F83FF0FC0FE
:102320001092E90081E08093EB001092EC0082E3D0
:102330008093ED001092060488E08093F00092FFF5
:1023400026C083E08093E9008091F200882319F091
:102350008AE38093E80080910404882351F08091FF
:10236000040481508093040480910404882309F4B8
:102370005D9880910504882351F080910504815077
:102380008093050480910504882309F428989F917F
:102390008F910F900FBE0F901F9018950895109277
:1023A000060481E08093D70080EA8093D80082E021
:1023B00089BD09B400FEFDCF61E070E080E090E0EF
:1023C0000E943A0C80E98093D8008CE08093E20070
:1023D0001092E000559A209A5D98289808955F928F
:1023E0006F927F928F929F92AF92BF92CF92DF9225
:1023F000EF92FF920F931F93CF93DF93E82E842EDB
:10240000752E80910604882371F18B01242F352FBE
:10241000C901EC017AEFF72E67E0962E9E2050E47A
:10242000552E8E2D90E040E2A42EB12CA822B92288
:102430003AE3632E20E4C22ED12CC822D9225CC0FC
:102440009FB7F8949092E9008091E80085FD02C062
:1024500020E004C08091F200252D281B9FBF22237D
:1024600061F4FA9419F42FEF3FEF51C061E070E08E
:1024700080E090E00E943A0C3FC0822F90E0C817A5
:10248000D9070CF42C2F4FB7F8949092E900809163
:10249000E80085FF30C0C21BD109A114B10421F4AA
:1024A00006C01092F10021502223D9F719C0E7FC91
:1024B00003C0F801922F10C0C801322F06C0FC01E2
:1024C0000196E491E093F10031503323C1F706C047
:1024D00081918093F10091509923D1F7020F111D42
:1024E0008091E80085FF05C0209729F4C114D1042C
:1024F00011F06092E8004FBF209709F0A1CF5D9ADC
:1025000084E680930404282D372DC9019C01C9015C
:10251000DF91CF911F910F91FF90EF90DF90CF90BF
:10252000BF90AF909F908F907F906F905F90089535
:102530000F931F93DF93CF930F92CDB7DEB719821E
:102540008E010F5F1F4FC8010E94110EC8010E942B
:102550003115898190E00F90CF91DF911F910F91FC
:1025600008951F920F920FB60F921124EF92FF92CF
:102570001F932F933F934F935F936F937F938F930B
:102580009F93AF93BF93EF93FF93DF93CF93CDB719
:10259000DEB76197DEBFCDBF1092E9008091E80001
:1025A00083FF0FC1FE0131969E01275F3F4F03C09D
:1025B0008091F1008193E217F307D1F7289A84E61E
:1025C0008093050482EF8093E800998197FF05C00E
:1025D0008091E80080FFFCCF03C08EEF8093E8007D
:1025E000292F30E0C90180769070892B09F0C2C094
:1025F0008A81882329F41092F1001092F100D6C04C
:10260000813009F4D3C0833009F4D0C0853049F457
:102610008091E80080FFFCCF8B8180688093E3008D
:10262000C5C0863009F07CC01C81EF80F884123070
:10263000C1F51092E900109208041092070410925C
:102640000A04109209040E94981299E0FE0139963A
:10265000DF01292F1D922A95E9F799871A8791E0C2
:102660009E8790E8988B9AEF998B20910704309180
:102670000804275F3F4F3C872B878D871092E90026
:102680001092080410920704F0920A04E0920904E0
:1026900080E0BF0149E050E00E941C110E949812A6
:1026A00085C01092E9001092080410920704F0927D
:1026B0000A04E0920904123241F482E290E00E949E
:1026C0002915892B09F476C071C0113079F488E09E
:1026D000E816F10419F481E080930B0480910B0457
:1026E000882309F06BC0EBEDF1E013C0133009F063
:1026F00061C08B81882319F4EDE9F1E00AC08230D2
:1027000019F4E1EAF1E005C0813009F053C0E3ECCF
:10271000F1E0449180E8BF0150E00E941C1146C0E6
:10272000873009F447C0883021F481E08093F100BC
:102730003DC08930D9F523703070232BD9F5E0E006
:10274000F2E091E031E026E39093E9003093EB0072
:1027500084918093EC002093ED009F5F319695303B
:1027600099F78EE78093EA001092EA008B818093BC
:1027700006041CC08F8198851092E900109208040D
:102780001092070490930A04809309048D81882392
:1027900029F4CE0101960E941D0E06C0823051F42C
:1027A000CE0101960E94FA13882321F08EEF8093C8
:1027B000E80007C081E28093EB0003C0EDEEF1E09A
:1027C000A8CF6196DEBFCDBFCF91DF91FF91EF9192
:1027D000BF91AF919F918F917F916F915F914F9139
:1027E0003F912F911F91FF90EF900F900FBE0F9090
:1027F0001F901895FC0191818081813A31F49130CC
:1028000089F080E0933089F40DC0813269F49B3007
:1028100021F482818093BC0205C09A3029F4828120
:102820008093BD0281E0089580E00895EF92FF92C9
:102830000F931F938C01E62EDC01ED91FC91048037
:10284000F581E02D0995F82ED801ED91FC910680D7
:10285000F781E02DC8016E2D09958F2D90E01F9115
:102860000F91FF90EF90089510920D0410921104B3
:102870001092100486EF92E090930F0480930E0460
:102880000895EF92FF920F931F93DF93CF930F92D0
:10289000CDB7DEB789838B017A0184E0BE016F5F1B
:1028A0007F4F41E050E00E94EF1184E4B801A7019E
:1028B0000E94EF110F90CF91DF911F910F91FF9028
:1028C000EF90089582E048E050E00E94411408959E
:1028D000FC011682178210861186128613861482D6
:1028E0003496BF010E9462140895DC01683810F02C
:1028F000685829C0E62FF0E067FF13C0E058F040A9
:1029000081E090E002C0880F991FEA95E2F7809578
:1029100014962C911497282314962C93149760E006
:1029200012C0EE57FD4F6491662319F420E030E0A9
:102930001DC067FF08C014968C9114978D7F149664
:102940008C9314976F77FD0190E0662321F08681C8
:10295000861709F416829F5F31969630B1F7CD0144
:102960001496BD010E94621421E030E0C90108956F
:10297000CF93DF93DC01683810F0685825C0E62F4C
:10298000F0E067FF12C0E058F04081E090E002C044
:10299000880F991FEA95E2F714962C911497282B2B
:1029A00014962C93149760E00FC0EE57FD4F64917E
:1029B0006623D9F167FF08C014968C911497826042
:1029C00014968C9314976F7716968C91169786179A
:1029D000A9F117968C911797861781F118968C910B
:1029E0001897861759F119968C911997861731F116
:1029F0001A968C911A97861709F11B968C911B9742
:102A00008617E1F0ED01E0E0F0E09E2F8E81882353
:102A100021F4EA0FFB1F668306C09F5F3196219663
:102A2000E630F10591F7963049F481E090E0139695
:102A30009C938E93129720E030E007C0CD0114964E
:102A4000BD010E94621421E030E0C901DF91CF9105
:102A5000089580E864E072E045E650E00E941C11B1
:102A60000895FC0180818F5F808380E869E672E0D1
:102A700049E150E00E941C1108955058BB27AA2735
:102A80000ED0FCC1EDD130F0F2D120F031F49F3FF7
:102A900011F41EF4BDC10EF4E095E7FBB3C1E92FBC
:102AA000FED180F3BA17620773078407950718F001
:102AB00071F49EF516C20EF4E0950B2EBA2FA02DE0
:102AC0000B01B90190010C01CA01A0011124FF27DB
:102AD000591B99F0593F50F4503E68F11A16F040D6
:102AE000A22F232F342F4427585FF3CF46953795D5
:102AF0002795A795F0405395C9F77EF41F16BA0B9A
:102B0000620B730B840BBAF09150A1F0FF0FBB1F47
:102B1000661F771F881FC2F70EC0BA0F621F731F90
:102B2000841F48F4879577956795B795F7959E3FED
:102B300008F0B3CF9395880F08F09927EE0F97957B
:102B4000879508958DD158F080E891E009F49EEFC3
:102B50008ED128F040E851E059F45EEF09C058C129
:102B6000C0C1E92FE0789BD168F3092E052AC1F393
:102B7000261737074807590738F00E2E07F8E025C3
:102B800069F0E025E0640AC0EF6307F8009407FAF3
:102B9000DB01B9019D01DC01CA01AD01EF9347D012
:102BA0006DD10AD05F91552331F02BED3FE049E420
:102BB00050FD49EC63CF0895DF93DD27B92FBF7730
:102BC00040E85FE31616170648075B0710F4D92F95
:102BD00093D19F938F937F936F93F8D1ECEAF0E0BA
:102BE0001AD14CD12F913F914F915F9198D1DD2314
:102BF00049F09058A2EA2AED3FE049EC5FE3D07833
:102C00005D274DDFDF913AC1D9D008F481E0089506
:102C10000CD034C12CD140F023D130F021F45F3FEF
:102C200019F0F0C051115EC1F3C039D198F3992366
:102C3000C9F35523B1F3951B550BBB27AA27621780
:102C40007307840738F09F5F5F4F220F331F441FC5
:102C5000AA1FA9F333D00E2E3AF0E0E830D09150FD
:102C60005040E695001CCAF729D0FE2F27D0660FEA
:102C7000771F881FBB1F261737074807AB07B0E829
:102C800009F0BB0B802DBF01FF2793585F4F2AF03F
:102C90009E3F510568F0B6C025C15F3FECF3983EFA
:102CA000DCF3869577956795B795F7959F5FC9F79C
:102CB000880F911D9695879597F90895E1E0660F25
:102CC000771F881FBB1F621773078407BA0720F09E
:102CD000621B730B840BBA0BEE1F88F7E095089507
:102CE00004D06894B111FEC00895E1D088F09F57D8
:102CF00090F0B92F9927B751A0F0D1F0660F771F48
:102D0000881F991F1AF0BA95C9F712C0B13081F027
:102D1000E8D0B1E00895E5C0672F782F8827B85F25
:102D200039F0B93FCCF3869577956795B395D9F788
:102D30003EF490958095709561957F4F8F4F9F4F92
:102D40000895E89409C097FB3EF49095809570959E
:102D500061957F4F8F4F9F4F9923A9F0F92F96E9E7
:102D6000BB279395F695879577956795B795F1115C
:102D7000F8CFFAF4BB0F11F460FF1BC06F5F7F4FF9
:102D80008F4F9F4F16C0882311F096E911C077230B
:102D900021F09EE8872F762F05C0662371F096E814
:102DA000862F70E060E02AF09A95660F771F881FE3
:102DB000DAF7880F9695879597F90895990F000887
:102DC000550FAA0BE0E8FEEF16161706E807F907FD
:102DD000C0F012161306E407F50798F0621B730B98
:102DE000840B950B39F40A2661F0232B242B252B19
:102DF00021F408950A2609F4A140A6958FEF811DBC
:102E0000811D089597F99F6780E870E060E008955C
:102E10009FEF80EC0895DF93CF931F930F93FF9262
:102E2000EF92DF927B018C01689405C0DA2EEF01EE
:102E300076D0FE01E894A591259135914591559163
:102E4000AEF3EF012CDEFE019701A801DA9479F7C9
:102E5000DF90EF90FF900F911F91CF91DF91089538
:102E600000240A9416161706180609060895002469
:102E70000A9412161306140605060895092E0394E3
:102E8000000C11F4882352F0BB0F40F4BF2B11F457
:102E900060FF04C06F5F7F4F8F4F9F4F089557FDB6
:102EA0009058440F551F59F05F3F71F04795880FB8
:102EB00097FB991F61F09F3F79F08795089512164F
:102EC00013061406551FF2CF4695F1DF08C01616FB
:102ED00017061806991FF1CF8695710561050894AC
:102EE0000895E894BB2766277727CB0197F90895C3
:102EF00065DF08F48FEF08959B01AC0160E070E09E
:102F000080E89FE385CE0BD0B9CFAADF28F0AFDFF2
:102F100018F0952309F076CF7BCF1124E3CFBFDFE4
:102F2000A0F3959FD1F3950F50E0551F629FF001DC
:102F3000729FBB27F00DB11D639FAA27F00DB11D35
:102F4000AA1F649F6627B00DA11D661F829F2227BE
:102F5000B00DA11D621F739FB00DA11D621F839F45
:102F6000A00D611D221F749F3327A00D611D231F1B
:102F7000849F600D211D822F762F6A2F11249F5769
:102F800050408AF0E1F088234AF0EE0FFF1FBB1F8C
:102F9000661F771F881F91505040A9F79E3F51052B
:102FA00070F030CF9FCF5F3FECF3983EDCF3869517
:102FB00077956795B795F795E7959F5FC1F7FE2BD6
:102FC000880F911D9695879597F908959B01AC01FF
:102FD0009ACFF4DE880B990B0895629FD001739FFE
:102FE000F001829FE00DF11D649FE00DF11D929FA5
:102FF000F00D839FF00D749FF00D659FF00D9927E4
:10300000729FB00DE11DF91F639FB00DE11DF91F07
:10301000BD01CF0111240895A1E21A2EAA1BBB1BEA
:10302000FD010DC0AA1FBB1FEE1FFF1FA217B30794
:10303000E407F50720F0A21BB30BE40BF50B661FAA
:10304000771F881F991F1A9469F76095709580956E
:1030500090959B01AC01BD01CF010895EE0FFF1FBC
:0C3060000590F491E02D0994F894FFCF46
:10306C00583A2000202000593A20005A3A20007586
:10307C005400436F6D706173732048656164696EB1
:10308C00673A20006D2F735E3220002D2D2D2D2DD3
:10309C002D2D2D2D2D2D2D2D2D2D2D2D2D2D2D2D54
:1030AC002D2D2D2D2D2D2D2D2D2D2D2D2D2D2D0071
:1030BC0053656E736F723A2020202020202000442C
:1030CC007269766572205665723A20202000556E22
:1030DC00697175652049443A20202020004D6178A3
:1030EC002056616C75653A20202020002075540014
:1030FC004D696E2056616C75653A20202020005277
:10310C0065736F6C7574696F6E3A20202000004DEA
:10311C0061676E65746F6D65746572205465737448
:10312C00004F6F6F70732C206E6F204C534D3330EB
:10313C0033206465746563746564202E2E2E2043E1
:10314C006865636B20796F757220776972696E6739
:10315C002100206D2F735E32004C534D3330330001
:10316C0020004368616E67696E672072616E6765E7
:10317C0020746F202B2F2D20382E31004368616E68
:10318C0067696E672072616E676520746F202B2FE4
:10319C002D20352E36004368616E67696E6720728C
:1031AC00616E676520746F202B2F2D20342E370015
:1031BC004368616E67696E672072616E6765207423
:1031CC006F202B2F2D20342E30004368616E6769E1
:1031DC006E672072616E676520746F202B2F2D2017
:1031EC00322E35004368616E67696E672072616EBE
:1031FC00676520746F202B2F2D20312E39006E61C6
:10320C006E00696E66006F7666002E000080894441
:10321C000000754400E10000000000000101000006
:10322C0000001904E803A103AA03BF03D0030000A4
:10323C000000FA06FD09FD0600000000E4069808EF
:10324C004407000000008A0DBF0DFD0DDC0DEC0DD8
:10325C00D80D000000001614890EB81475146814EB
:00000001FF
